:020000040800F2
:1000000070140020AD4000087140000873400008E3
:1000100075400008774000087940000800000000A3
:10002000000000000000000000000000AD370008E4
:100030007B4000080000000055370008D936000852
:10004000DD400008E1400008E5400008E940000804
:10005000ED400008F1400008F5400008F9400008B4
:10006000FD40000801410008054100080941000861
:100070000D41000811410008154100081941000810
:100080001D41000800000000214100082541000832
:10009000294100082D410008314100083541000880
:1000A000394100083D4100087D40000841410008F9
:1000B00045410008494100084D41000851410008F0
:1000C00055410008594100085D41000861410008A0
:1000D00065410008694100086D4100087141000850
:1000E00075410008794100087D4100088141000800
:1000F00085410008894100088D410008000000008A
:100100000000000091410008000000009541000837
:1001100099410008000000009D410008A14100082D
:10012000A5410008A9410008AD410008B1410008FF
:10013000B54100080000000000000000B9410008BF
:10014000BD410008C141000800000000000000009F
:10015000000000000000000000000000000000009F
:10016000000000000000000000000000C541000881
:10017000C94100080000000000000000000000006D
:1001800000000000CD410008000000000000000059
:10019000000000000000000000000000000000005F
:1001A0000000000000000000D1410008D541000817
:1001B000D9410008DD410008E141000800000000CD
:1001C00000000000E5410008000000000000000001
:1001D000E9410008ED4100082DE9F14FB2B0994620
:1001E000924600230691CDE900333C9A0F930DF11E
:1001F0004A0114914A7011E0329E57462C4617F876
:10020000011B0698B0470028069000F026810F9841
:10021000401C641E0F90F2D13296AA449AF8000056
:10022000252808D10021002209910A920B910C92F5
:100230000D910E920FE06A464FF0FF31504601F0EB
:100240007FF8050002D10F9800F066BED4D50125D5
:10025000E3E741F001011AF8010F2028F9D0232823
:100260000CD02B2804D02D2805D0302809D00BE045
:1002700041F00201EFE741F00401ECE741F0080131
:10028000E9E741F01001E6E72A280FD1D9F800206C
:1002900052F8040BC9F800200028119003D5404201
:1002A000119041F004010AF1010A14E01192DFF803
:1002B000EC3B0AE01198984205DA00EB800402EB6F
:1002C0004402303A11920AF1010A9AF80020A2F190
:1002D00030000A28EED39AF800002E2803D04FF001
:1002E000FF32109229E01AF8010F2A2809D1D9F813
:1002F000000050F8042BC9F8000010920AF1010A1E
:100300001BE02D280CBF0AF1010A002000221092E8
:10031000DFF8882B0BE040B9109B934205DA03EB22
:10032000830504EB4504303C10940AF1010A9AF865
:100330000040A4F130030A2BEDD3ADF848100FF6BE
:1003400060309AF8001001F005F808B11AF8010BB6
:100350008DF84A009DF84A00682805D19AF80000F7
:1003600068280CD1622106E06C2804BF9AF80000CE
:100370006C2804D171218DF84A100AF1010A1FA8D6
:1003800008901AF801BBBBF125012DD01C3900F0F3
:100390006181091F022940F25D810E392AD0491F6F
:1003A00000F0B384093900F05581891E00F04985B9
:1003B000491E00F0F584491E022940F24B81091FB5
:1003C00000F0EE84491F00F0BA80491E00F09D84C1
:1003D000491E65D0C91E21D0891E00F09684C91E11
:1003E00000F0938400F04CBD25238DF87C30012172
:1003F00009912AE06C208DF84A00D9F8000050F8E5
:10040000042BC9F80000002A43D114994878002829
:100410003DD04FF0FF340FF6902012E09DF84A00D7
:100420006C28EAD0D9F8000050F8044BC9F8000055
:100430000794D4B91499487898B14FF0FF340FF667
:10044000842000F0A1FF201A07D132981FAA04A926
:1004500000F065FD00287FF5E1AE4FF0FF3000F0C1
:100460005BBD0FF67C200790EFE7109D002D04D5B3
:10047000204600F0A9FF044607E02A46204600F087
:10048000BFFF002814BF041B2C460A94DDE70FF6BB
:100490005422329804A900F0C8FD0028D5D5DCE725
:1004A000D9F8001051F8040BC9F8001020F000042E
:1004B000002121F0FF351FABCDE904450793DDE9AD
:1004C000042308993C2413B90AB9109898B102F092
:1004D0000F053035641EEEB23A2EA8BF273512093B
:1004E00042EA03721B090D5508BF002A03D0079882
:1004F0000D19A842EBD308190790C4F13C021098DB
:100500000A92824209DABDF84810821A4FF6EF705B
:1005100001400C92ADF8481097E7002895D59DF85A
:10052000480000F0140010288FD1119B09990C98F5
:100530005B1A1B1A9A1A002A87DD0C9285E7149918
:10054000487820B14FF0FF340FF69C1079E79DF802
:100550004A00622862D0682819D06A2840D06C28E6
:1005600006D071284DD074282DD07A281ED064E092
:10057000D9F8001051F8040BC9F8001020B94FF059
:10058000FF340FF67C105CE70F9901605DE7D9F846
:10059000001051F8040BC9F8001020B94FF0FF34D7
:1005A0000FF65C104DE70F9901804EE7D9F8001067
:1005B00051F8040BC9F800100028E5D14FF0FF34C2
:1005C0000FF63C103DE7D9F8001051F8040BC9F8BC
:1005D00000100028D8D14FF0FF340FF6241030E778
:1005E000D9F8001051F8040BC9F8001020B94FF0E9
:1005F000FF340FF60C1024E70F9AD317C0E900233D
:1006000023E7D9F8001051F8040BC9F800100028AE
:10061000F2D14FF0FF340FF6E80012E7D9F80010DE
:1006200051F8040BC9F8001020B94FF0FF340FF651
:10063000D00006E70F99017007E7D9F8001051F8CC
:10064000040BC9F8001000289ED14FF0FF340FF6BC
:10065000B000F6E6D9F80020D21D22F00702C9F852
:100660000020D2E900010832C9F80020CDE90401D8
:10067000C80F02D009982D210AE0BDF84800810773
:1006800002D509982B2103E0C00705D50998202140
:100690001FAA1154401C0990DDE9042309991FA8E1
:1006A000CDE92E2308444BF020016129079015ACB9
:1006B0000BD01099002902D50621109105E001BF49
:1006C0004BF02001672901221092DDE90423590033
:1006D0004915491C10D11A030ED0ABF16105032155
:1006E0001A2D0A9102D20FF6A43101E00FF6A031C3
:1006F000032200F0B1FEA8E659004915491C0AD1B1
:100700001A0308D1ABF1610503211A2D0A9116D302
:100710000FF68431ECE7DDE90401CDE93001DDE9D4
:10072000302323F00047B7F5801F22F000060DD2DA
:100730000022002F08BF002E029203D116E00FF610
:100740005431D5E702AA00F093FE0FE0DFF8EC0A7F
:10075000DFF8EC1A00EB17500290DDE930234FF080
:10076000FF301940DFF8DC7A10403943CDE904014D
:100770004BF0200061280DD1079830210170821CB8
:10078000BBF1610F07920CBF782158214170099885
:10079000801C0990DDE9040120F0000231F00043E3
:1007A00008BF002A02D10026002571E14BF0200885
:1007B000B8F1610F40F0BE801098002847BF21219A
:1007C0000391401C0390039FDDE92E017F1C002252
:1007D0000023DDE9044500F083FE02998DF85420E2
:1007E00038BF85F00045091F002F02910DF1550615
:1007F0005DDDDFF8541ACDE9302140F2FF732E930E
:10080000204629460022002300F082FE4FD24800F5
:10081000400D00F11C0215D0002A13DD2E9B9A42D8
:100820000ADBDDE9300121F0004205F0004002431F
:10083000DDE93001114611E06FF31E5141EA02512A
:1008400020460BE024F0000035F0004108BF0028EE
:100850000FBF29461C22294600F072FE04460D46B1
:1008600000F00CFFFF1F002F804609DD00F024FF81
:1008700002460B462046294600F030FF04460D464E
:10088000F01D0721B8F1000F0CDD491E5EBF08F016
:100890000F0200F8012D4FEA2818F3D502E00022DC
:1008A00000F8012D491EFAD5C61D002FA8DC0DF158
:1008B0005500361A03988642D8BF304600280DF1FD
:1008C000550430D4B04206DA0DF155010A5C082A0D
:1008D000A8BF0F2100DA0021024615AB134400E047
:1008E000401E13F80159521E8D42F9D00F2904D130
:1008F0000DF155018B5C5B1C8B54002A04D50299C9
:10090000091D15AC401C0291411E0CD46218ABF1BC
:100910003A0613783033DDB23A2DA8BFF318491EDA
:1009200002F80139F5D51099002940F1AF80421E37
:100930001092ABE00299DFF8142947F29750414337
:1009400091FBF2F2DDE92E45029225F00045D2F14D
:10095000070204DD2046294600F04CFC0BE0524221
:100960000020DFF8EC1800F045FC02460B4620465C
:10097000294600F025FF0446B8F1660F109806BF1F
:10098000029F0A3706273F18142FC8BF14273020AC
:100990008DF854000D460020DFF8B818CDE92E017F
:1009A0000DF15506002F33DD2046294601F02CF8C5
:1009B00001460A4606F1080304200A26B2FBF6F6B1
:1009C00006EB860EA2EB4E02303203F8012C0A220F
:1009D000B6FBF2F202EB820EA6EB4E063036401E5C
:1009E00003F8026DE9D1083F002F03F10806D9DDB5
:1009F000084601F01DF802460B462046294600F045
:100A00006DFEDDE92E2301F021F804460D46CBE70B
:100A10000DF15500361A0DF1550404E00298401E00
:100A2000761E0290641C20783028F7D0B8F1660F4B
:100A300002D10299491C04E0B8F1650F0CBF0121F5
:100A40000021109808188642B8BF701E00281DD4D7
:100A5000B04204DA215C3429C8BF392100DC3021DE
:100A60000246631E9D1800E0401E15F80169521EE3
:100A70008E42F9D0392902D1A15C491CA154002A27
:100A800004D50299491C1C46401C02910646029D51
:100A900000F05AFC406A0778DDF8408030B2002848
:100AA00002DC01260FF2F4744BF02000662808BF28
:100AB0006D1C16D0672846D128B210F1040F48DB10
:100AC000404546DA9DF848006D1C010703D430B25A
:100AD0004045B8BF804628B2B8EB000848BF4FF089
:100AE00000080FFA85FB07980A99BBF1000F00F385
:100AF000B2804A1C0A9230234354B8F1000F03DC41
:100B00009DF84800010704D50A98411C0A910799ED
:100B10000F5418EB0B0FB8BFC8F100052DB2684297
:100B20000D90A84432B29045B8BF4646079B0A983C
:100B300036B20B9632462146184400F08DFCA8EBE5
:100B400006000E90CBE0BBF1610F17D14FF0700B98
:100B500019E030B2404504DA9DF848100A0758BF42
:100B60008046B8F1010848BF4FF00008BBF1670F9D
:100B700014BF4FF0450B4FF0650B04E0BBF1410F84
:100B800008BF4FF0500B0A98411C0A91B8F1000FB2
:100B9000079914F8012B0A5403DC9DF8480001075B
:100BA0001AD50A98411C0A91B8F1000F07990F5401
:100BB00012DD761E30B2804507980A9BB8BF4646C4
:100BC00032B22146184400F047FC0A9936B2711837
:100BD0000A91A8EB06000D9007980A9908442AB2DA
:100BE000002A80F800B003D42B224270811C04E05C
:100BF0002D2141701546811C6D4200202EAA0A2429
:100C000009E02B4693FBF4F505EB8506A3EB4603C1
:100C100002F8013B401C2DB2002DF2DC012806DC5D
:100C20004BF02002652A04BF302201F8012B002876
:100C30002EAA08D1302001F8010B06E0401E135CFB
:100C4000303301F8013B0028F8DC079A0A98104479
:100C5000091A0B9143E0084431B22AB2914219DAE1
:100C600032B2214600F0F8FB0A9936B27118ABEBAC
:100C70000606B8F1000F0A910D9603DC9DF84800B6
:100C8000020704D5079847540B99491C0B91CDF8DE
:100C9000388024E0214600F0DFFB0A98761B584498
:100CA000B8F1000F0A9003DC9DF848100A0703D53D
:100CB000411C0A9107990F5430B2804507980A9B4E
:100CC000B8BF464632B204EB0B01184400F0C4FB37
:100CD0000A9836B230180A90A8EB06000D909DF8DD
:100CE000480000F0140010287FF4AFAB099A0A996D
:100CF0000D988A180B9982180E988A1882181198E4
:100D00008242BFF6A2AB821A17E49DF84A0062281D
:100D100008D068280ED06A2814D06C281FD07128FB
:100D200010D01CE0D9F8001051F8040BC9F80010DD
:100D3000C0B21AE0D9F8001051F8040BC9F800103D
:100D400080B212E0D9F80020D21D22F00702C9F8C3
:100D50000020D2E900010832C9F8002006E0D9F8E5
:100D6000001051F8040BC9F800100021CDE904016E
:100D70009DF8480001075AD5DDE90423002B08BF80
:100D8000002A54D04BF02000782850D109981FA990
:100D900030220A54401C431C099301F800B046E07D
:100DA0009DF84A00622808D068280ED06A2814D01E
:100DB0006C281FD0712810D01CE0D9F8001051F811
:100DC000040BC9F8001040B21AE0D9F8001051F82D
:100DD000040BC9F8001000B212E0D9F80020D21DAF
:100DE00022F00702C9F80020D2E900010832C9F850
:100DF000002006E0D9F8001051F8040BC9F80010E3
:100E0000C117CDE90401002902D509982D210AE076
:100E1000BDF84800810702D509982B2103E0C007DF
:100E200005D5099820211FAA1154401C09901FA81C
:100E300009990144079104A8594600F056F9FFF7B3
:100E400004BB9DF84A006C280BD001210991D9F808
:100E5000000050F8041BC9F800008DF87C10FFF763
:100E6000F4BAD9F8000050F8041BC9F80000159135
:100E70004FF0FF3210920021169115AAFFF709BB1F
:100E800025210122BBF1000F8DF87C1009923FF45F
:100E9000DCAA8DF87DB00221FFF7AABACBCCCC0C2E
:100EA000686A6C747A4C00007072696E74665F7365
:100EB0003A2062616420256C7320617267756D65EC
:100EC0006E7400007072696E74665F733A206261BE
:100ED0006420257320617267756D656E7400000073
:100EE00000000000000000007072696E74665F739D
:100EF0003A20256E20646973616C6C6F77656400BD
:100F00007072696E74663A2062616420256E206199
:100F10007267756D656E740033B0BDE8F08F2DE9B2
:100F2000FC410F46064690467A6B7869396ABC6A7E
:100F3000121AB869521A796A121AF869521A121AF0
:100F400097F83800141B41070FD42020002C8DF88F
:100F500000000ADD254601236A463946304600F086
:100F60007DF900285DD16D1EF5D17B694246394679
:100F7000304600F073F9002853D130208DF800007E
:100F80003D6A002D09DD01236A463946304600F0EE
:100F900065F9002845D16D1EF5D1BB69FA6839465F
:100FA000304600F05BF900283BD130208DF800007E
:100FB0007D6A002D08DD01236A463946304600F07F
:100FC0004DF970BB6D1EF6D1F868B969FB6942181E
:100FD0003946304600F042F918BB30208DF8000049
:100FE000BD6A002D08DD01236A463946304600F00F
:100FF00035F9B0B96D1EF6D197F8380041070DD517
:101000002020002C8DF8000008DD01236A463946B7
:10101000304600F023F920B9641EF6D10020BDE867
:10102000F6814FF0FF30BDE8F6812DE9F8470D4617
:10103000A3B02F6B002F8246904648BF6FF0004749
:1010400000F0D5FD696B401801AA0021C2E900112A
:10105000812828BF4FF0FF3044D289461EE0A742C6
:1010600030DB6869201881280BD30021696303AA4B
:1010700029465046FFF753FF5FEA000922D40020BB
:10108000686103AB6E6922466946981900F0E4F97D
:10109000A6196E6158F8040BA0B13F1B002F11DD9B
:1010A000D8F8001001AA684600F04CF90446002C5C
:1010B00005D4D8F800000028D1D1641ECFD54FF058
:1010C000FF390EE0B9F1000F504604D103AA2946BA
:1010D000FFF725FF8146B9F1000F02D100206861BA
:1010E0006863484624B0BDE8F0872DE9FC43074615
:1010F0006F293E6908BF082405D041F020007828F8
:1011000014BF0A2410243C25D7E90023642918BF02
:1011100069299046994605D1002B03D5D8F10008DE
:1011200069EB4909B9F1000F08BFB8F1000F0CD104
:10113000386B50B9082C39D197F83800010735D5EC
:1011400030203B2586F83B0030E08DF8001040460B
:1011500049462246E31700F04FFD3032D0B26D1EF3
:101160003A28019504DB9DF80000A0F151018A188E
:101170007255404649462246E31700F03DFD804641
:101180005FEA010908BFB8F1000F03D0F8687119D0
:101190008842DCD3082C09D197F83800010705D51F
:1011A000705D302802D06D1E30207055C5F13C02B4
:1011B000BA617119F960386B824208DA821A3A62B0
:1011C0004FF6EF70398F01403987BDE8F38300286F
:1011D0000ED597F8380000F01400102808D17B6B6A
:1011E0007969386A5B1A1B1A9A1A002AC8BF3A62D0
:1011F000BDE8F3832DE9D04306460F4614464FF071
:101200000008DFF8549012E0E00707D542464B464D
:101210003046394600F01AFC06460F46404649461D
:1012200042464B4600F012FC641080468946002C72
:10123000EAD130463946BDE8D083000002FCFFFF0A
:10124000FFFF0F800000E03F0000F07FA08601005C
:101250000000F03F84D7974100002440F8B50546D0
:101260000E4617461C4600205CB117F8011BB068FB
:10127000A847B06030B1F06A401CF0620020641EE4
:10128000F3D1F2BD4FF0FF30F2BD00006E616E0091
:101290004E414E00696E6600494E4600300030B443
:1012A000002513E050F8042BD30744BFA9F1010334
:1012B0009A18091F042942F8045BFAD213468C07D6
:1012C00044BF15809B1CC90748BF1D7050F8041B04
:1012D0000029E7D130BC70471C48704770B4536890
:1012E000D41801E05B1C491E042B08DA00291FBF3B
:1012F000057804F8015B10F8016B002EF2D1536001
:1013000070BC704738B514461D4661B1FFF7E6FF63
:1013100061686A6B204690476FF00102811A02D023
:10132000491E01D001E003E005E00021616032BD0B
:101330006FF0010032BD4FF0FF3032BDDA6B104765
:10134000024BDFE7014BF9E70148704754000020EA
:101350001C000020C9B202788A421AB11CBF10F8E2
:10136000012FF9E718BF00207047B1F5807F02D345
:101370004FF0FF3070470170012070470078401E29
:101380008041C043C00F704780B500B906A0054931
:101390000B681BB122220021984701E000F044FDB8
:1013A000222002BD60100020636F6E737472616949
:1013B0006E742068616E646C65723A2062616420AC
:1013C0006D6573736167650000F10103810704D0E7
:1013D00010F8011B820781B1FAD10268A2F1013134
:1013E000914311F0803104BF50F8042FF6E709BA99
:1013F000B1FA81F100EBD100401CC01A70472E00F9
:10140000C9B2830706D0521E22D310F8013B99427D
:10141000F7D11FE0083A13D302F1040241EA012197
:1014200041EA014150F8043B121F21BF4B40A3F198
:10143000013C2CEA030C1CF0803FF3D0C9B2001F22
:10144000083210F8013B521E28BF91EA030FF8D86A
:1014500018BF0120401E70474AB1000011F8013B3F
:10146000521E00F8013B1CBF11F8013BF8E7704722
:1014700010B5144600F002F8226010BDC1F30A5303
:1014800043B14A0012F5001F28D2A3F2FE32A1EBAD
:101490000251704750EA410C20D001F0004C31EA73
:1014A0000C01B1FA81F204BFB0FA80F3D2180B3A02
:1014B000B2F120032CBF00FA03F1914041EA0C0184
:1014C0003EBFC2F1200C20FA0CF319439040524267
:1014D00040F2FD33D21A01EB0351704700227047EE
:1014E0004FF4001C1CEB410F94BF1CEB430F09E0B1
:1014F00041EA030C50EA4C0C52EA0C0C03D299421C
:1015000008BF9042704714BF8B428242704743002D
:101510004FF4001C1CEB410F94BF1CEB430F09E080
:1015200041EA030C50EA4C0C52EA0C0C03D28B42F9
:1015300008BF8242704714BF994290427047000032
:10154000124254D440F2FF7C1CEA11530FD0634581
:1015500031D09B1863453CBF01EB0251704701F04D
:10156000004141EA0C510020AFF30080704750EA7F
:10157000410320D001F0004C91EA0C011CD0B1FADB
:1015800081F30B3B9A420DD9D21A994051EA0C01D2
:10159000C3F1200C20FA0CFC61449840531C40F22B
:1015A000FF7CD7E7914041EA0C01C2F1200C20FA00
:1015B0000CF3194390407047B0FA80F31533202B99
:1015C000E0D3202AEED3203A203B9A4209D9D21AFE
:1015D00000FA03F141EA0C010020531C40F2FF7CA9
:1015E000B8E700FA02F141EA0C01002070475242CC
:1015F00040F2FF7C1CEA11530DD06345DBD0B2EB07
:10160000030C3CBFA1EB025170470CF1010221EA2F
:10161000035141F4801150EA410CCCD001F0004C50
:10162000352A27DC30B481EA0C01B2F1200309DA53
:10163000C2F12003044601FA03F5D0402843D1400B
:101640009C400CE0C3F12002450020FA03F418BFCF
:1016500044F0010421FA03F091400C43002174F19D
:10166000004550F1000051EB0C01244230BC7FF4E6
:101670007BAF70476146002076E70000C1F30A5354
:1016800040F2FE329B1A14DDD3F120034FEAE172DF
:1016900008DDC90241EA505141F00040D8408018AD
:1016A0005040704703F2E13010B1D24382F0004065
:1016B0007047002070470000C11768B14840401AC9
:1016C000B0FA80F29040D21CC907C2F5846241EAA8
:1016D000025202EBD02140057047000070B44FF079
:1016E000004591EA030F40F1A3836B40841A71EB2C
:1016F000030603D2001BB141121973414FF4001CC1
:101700001CEB410F34BF7CEB430442E00C0DA4EB17
:101710001356352E4FDC45EAC323DB0A45EAC121C7
:10172000C912B6F120050DDD63FA05F6EB4086EA35
:101730000305124218BF45F00105C01851F1000120
:101740000CD213E062FA06F5F2405540F3415A40DC
:10175000B340F3405A408018594107D349085FEA23
:1017600030005FEA350528BF45F0010501F580111D
:10177000420875F1004250F1000041EB04514E0067
:1017800016F5001F70BC38BF70470020090D090511
:1017900070471CEB410F10D252EA43060BD0BCEB52
:1017A000410F05D80C0DAB43661E342EB6DD02E0AA
:1017B000AB438018594170BC704770BC7047000043
:1017C000F0B540F2FF7581EA030C0CF0004C15EA0D
:1017D00011541DBF15EA1357AC42AF42E5E0BC41BE
:1017E000C1F31301C3F31303801A994143F4801327
:1017F00004D2641E4000494180185941C90241EA9F
:101800005051B1FBF3F603FB1611A2FB0675D7EBA3
:10181000C020A94102D2761E80185941C90241EA6E
:101820005051B1FBF3FE03FB1E11A2FB0E75D7EB6B
:10183000C020A94103D2AEF1010E8018594189029E
:1018400041EA9051760546EA8E2EB1FBF3F603FB92
:101850001611A2FB0675D7EB8020A94102D2761E95
:1018600080185941C90241EA50514EEA060EB1FBB7
:10187000F3F603FB1611A2FB0675D7EBC020A941B6
:1018800002D2761E80185941C90241EA5051B1FB7B
:10189000F3F703FB1711A2FB0735D3EBC020A941D7
:1018A00067F100070CBF004247F0010766F3D52738
:1018B0004FEA1E31B80814F5806412DDBD0775F1DA
:1018C000004250EB0E5051EB045111F5801F5CBFEC
:1018D00041EA0C01F0BD4CF07F6141F0E041002095
:1018E000F0BDBD076D0840EA0E5041F48011D4F1FF
:1018F0000104B4F120060ADAC4F120060200E04037
:1019000001FA06F3E1401843B24015430EE0342CCF
:1019100013DCC6F1200445EA40056D0820FA06F202
:10192000154321FA06F0A1400D43002175F1004254
:1019300050F1000051EB0C01F0BD00205FEA0C01FA
:10194000F0BDCFB992185B41B3FA83F704BFB2FA86
:1019500082F6BF190B3FB7F120062FBF02FA06F33C
:10196000BB40C7F1200622FA06F638BF3343BA401F
:101970001CB1E419641E33E77F4231F00041B1FA33
:1019800081F404BFB0FA80F6A4190B3CB4F1200630
:101990002FBF00FA06F1A140C4F1200620FA06F696
:1019A00038BF3143A0403C1B1AE7AC421ABF05EADE
:1019B0001357AF4212E050EA41061CBF52EA4306F9
:1019C000BFE750EA4107304661461CBF41EA055176
:1019D000F0BD52EA430C08BFC143F0BD00204FF4F4
:1019E000001616EB410F98BF16EB430F08BF16EB1E
:1019F000410F24BFC14305E016EB430F0CBF614606
:101A00004CEA0551F0BD0000400D491840EA812024
:101A10000CD2490DA1F58061491C40F0004005DB66
:101A2000D1F11F0154BFC840C01770470020704754
:101A3000014648B1B0FA80F18840C91CC1F5846103
:101A4000090501EBD021400570470000B0B581EADF
:101A5000030C0CF0004C40F2FF7515EA11541DBF49
:101A600015EA1357AC42AF4239E0E41923EA455373
:101A700043F48013C90241F0004141EA505EC702BD
:101A80001100A7FB020200284FF00000EEFB01202E
:101A90004FF00001E3FB072118BF42F0010240189C
:101AA00000214941E3FB0E01A4F580640F0302D23B
:101AB00052004041494154F101046CDD470872F184
:101AC000004250F1000051EB0451A1F580115CBFC0
:101AD00041EA0C01B0BD4CEA05510020B0BD05EA59
:101AE0001357AC4214BFAF4241E050EA410E1CBF55
:101AF00052EA430E02E061460020B0BD24423C445D
:101B00001BD15FEA070EF6D0090302BF0146002091
:101B1000AEF1140EB1FA81F7AEEB070401FA07FE3D
:101B20000C37C7F1200100FA07F7C8404EEA000E53
:101B300023EA455343F48013A2E733F00043B3FA9A
:101B400083F704BFB2FA82FE77440B3FE41BB7F180
:101B5000200E2FBF02FA0EF3BB40C7F1200E22FA6F
:101B60000EFE38BF43EA0E03BA40641C82E750EA17
:101B7000410E14BF52EA430E6FF000014FF40017FC
:101B800017EB430F8ABF194617EB410FB5E74CEA35
:101B900005510020B0BDD4F10104B4F120070FDAE3
:101BA000C4F12007520828BF42F0010210FA07F5DD
:101BB00001FA07F7E1BF2A43E0403843E1400FE074
:101BC000352C98DCC7F1200452EA400220FA07F2D3
:101BD00018BF42F0010231FA07F0A1400A43002188
:101BE00072F1004250F1000051EB0C01B0BD80B524
:101BF000FFF772FB006C02BDBBBBE1B1B2F5803FE9
:101C000080F07E80022A1ED98C46B1FBF2F102FBE5
:101C100011C31B0443EA1043B3FBF2FC02FB1C3369
:101C200080B240EA0343B3FBF2F002FB103240EA19
:101C30000C4000237047022A05D98446B0FBF2F01D
:101C400002FB10C270474AB105D100F001024908F9
:101C50005FEA3000704700220023704700F09EB911
:101C60000B000200002100207047904271EB030C32
:101C7000F6D3B3F5803F2FD2F0B5B3FA83F7B1FABC
:101C800081F4A7F10F0E3D1B5340CEF1200602FA5E
:101C90000EF2F3415340B5F10F0746D80F3C2C44E8
:101CA0004140C4F12006A040F1414140B1FBF3F6B0
:101CB00003FB1611A2FB0645001BA94102D2761EAA
:101CC0008018594180EA010221FA0EF362FA0EF2FD
:101CD00000215A403046F0BD30B4B1FBF3FC03FBA9
:101CE0001C11A2FB0C45001BA94103D2ACF1010C55
:101CF0008018594130BC02460B46604600217047AF
:101D0000B2F1807F65D3F0B5B2FA82F7B1FA81F40F
:101D1000C7F10F063D1B22FA06F307F1110EF2413F
:101D200020355A40B5F10F07B8D94140C4F120061B
:101D3000A040F1414140B1FBF3FC03FB1C11A2FBAD
:101D40000C45001BA94103D2BCF1010C801859417C
:101D50000F2F12D30F3FC90341EA5041B1FBF3F6F5
:101D600003FB1611A2FB0645D4EBC030A94102D2F9
:101D7000761E8018594146EACC3C07B34140C7F172
:101D80002006B840F1414140B1FBF3F603FB1611C8
:101D9000A2FB0645001BA94102D2761E80185941BC
:101DA00080EA010221FA0EF3C7F1200462FA0EF272
:101DB0000CFA07F05A402CFA04F13043F0BD80EAE7
:101DC000010221FA0EF3002162FA0EF260465A4037
:101DD000F0BD8C46B1FBF2F102FB11C31B0243EADA
:101DE0001063B3FBF2FC02FB1C331B024CEA002025
:101DF00043EA1063B3FBF2FC02FB1C331B024CEA08
:101E0000002043EA1063B3FBF2FC02FB1C331B020D
:101E10004CEA002043EA1063B3FBF2FC02FB1C32E5
:101E20004CEA002000237047012000F0B9B8000000
:101E3000841A71EB030604D26E40001BB1411219E3
:101E400073414FF4001C1CEB410F34BF7CEB430685
:101E500083E00C0DA4EB1356362E00F37C80012E8C
:101E600045EAC32341DC43EA525312BFD202920235
:101E70005B08240545EAC12141EA5051D2EBC0205C
:101E8000994125D407D1B0FA80F610FA06F162D054
:101E90000020203608E0B1FA81F6B140C6F12002F8
:101EA00020FA02F21143B0404FEAF474B4EB465406
:101EB00034F001064FEA74040AD8D6F50016760D00
:101EC00004F00044F04061FA06F25040F14048400E
:101ED000C00A40EA415021F0004128BF5FEA5005A6
:101EE00050F1000044EBD12135E0DB0A45EAC12185
:101EF000C90AB6F120050EDD42EA0242120CC5F114
:101F0000200603FA06F6EB4042EA06056D429841C8
:101F100061F100010DE062FA06F5F240554063FA06
:101F200006FC82EA0C02F3405A406D42904161EB9C
:101F3000030111F4801F05D1641E620502D06D00FB
:101F40004041494121F48011430875F1004350F1AB
:101F5000000041EB045170BC70471CEB410F15D2DF
:101F600023F0004352EA43060BD04FEA4C0CBCEB83
:101F7000410F04D80C0D661E342EB7DDEBE7801A36
:101F8000994150EA410608BF0021E4E708BF1CEB75
:101F9000430F28BF6FF00001DDE70000704700002D
:101FA00080B500F007F8024A11001820ABBEFBE72D
:101FB0002600020010B500F052F802000023DB43B7
:101FC00000241068984203D011000220ABBE1460B8
:101FD0005068984203D0111D0220ABBE546010BD62
:101FE000F0B583B0040000F03AF8A10047183D684E
:101FF0000026F643B54216D100F01AF83D68B54206
:102000000FD100BF09A00090002C01D1002000E0FA
:10201000042001900320029069460120ABBE050018
:102020003D6000F014F8280003B0F0BD3A7474006D
:102030000C480121BFF35F8FD0E84F3FC0E8421F3B
:10204000002AF9D1BFF35F8F002BF3D17047054809
:10205000BFF35F8F00210170BFF35F8F70470248AD
:102060007047000068100020940100202DE9F8431B
:1020700004006DD02078DFF81066C10717D500F096
:10208000D0F90CD101F0030103290AD06068B0F542
:10209000803F2AD1306840F48030306037E0082833
:1020A000F4D13068810302D56068002850D02178CF
:1020B000880759D500F0B5F943D101F00301022991
:1020C00041D0E06800286AD0316841F48071316005
:1020D00000F0F6FA0546306841055DD400F0F0FAEC
:1020E000401B0328F7D3032091E1B0F5A02F3068FF
:1020F00006D140F480203060316841F4803105E041
:1021000020F480303060316821F4802131606068D3
:1021100058B100F0D5FA054630688103C7D400F005
:10212000CFFA401B6528F7D3DDE700F0C9FA054672
:1021300030688103BBD500F0C3FA401B6528F7D394
:10214000D1E70428BDD13068410503D5E0680028F7
:1021500000F05A8100F05DF9DFF83805006800F002
:10216000B5FA002840F050812078DFF82C7501077F
:1021700034D560690028786821D040F0010078608B
:1021800000F09EFA05467868810727D400F098FA97
:10219000401B0328F7D3A6E700F03BF9E4E73068DB
:1021A00020F48070306000F08BFA054630684105FD
:1021B000DAD500F085FA401B0328F7D393E74008EF
:1021C0004000786000F07CFA05467868810705D504
:1021D00000F076FA401B0328F7D384E72078410704
:1021E00063D5B06D0025C10009D4B06D40F08050BA
:1021F000B0650125B06D00F0805000900098DFF8C8
:102200009C84D8F80000C10513D4D8F8000040F42D
:102210008070C8F8000000F053FA8146D8F800003A
:10222000C10506D400F04CFAA0EB09000328F5D351
:1022300059E7A068012804D1386840F001003860EF
:1022400010E00528386806D140F00400386039688D
:1022500041F0010105E0400840003860396821F094
:1022600004013960A06841F2893860B100F028FAB1
:1022700081463868810713D400F022FAA0EB0900E8
:102280004045F6D32FE700F01BFA814638688107F6
:1022900006D500F015FAA0EB09004045F6D322E779
:1022A0001DB1B06D20F08050B0652078810621D539
:1022B000A0690028B8680ED040F00100B86000F0B6
:1022C000FFF90546B868810714D400F0F9F9401BFE
:1022D0000328F7D307E740084000B86000F0F0F9A2
:1022E0000546B868810705D500F0EAF9401B0328C8
:1022F000F7D3F8E6E069002800F08880B16801F0C3
:102300000C010C2955D00228306820F08070306014
:102310003AD100F0D5F905463068810105D500F0C5
:10232000CFF9401B0328F7D3DDE6F068DFF8701320
:10233000226A0840616A1043491E40EA0110226B7C
:10234000A16A520840EA0120616B521E490840EA26
:102350004250491E40EA4160E16A40EAC160F060D3
:10236000306840F080703060F16841F08071F16059
:1023700000F0A6F904463068810147D400F0A0F9C6
:10238000001B0328F7D3AEE6F168DFF818038908CD
:102390008900F160F1680140F16000F091F90446B4
:1023A0003068810132D500F08BF9001B0328F7D388
:1023B00099E6012828D0F068226A00F003019142D2
:1023C00001BF00F0F001626A521EB1EB021F1BD187
:1023D000A26A00F4FE41B1EB022F02BF00F0784187
:1023E000E26AB1EBC26F0FD1226B520800F4C00158
:1023F000521EB1EB425F07D1616B490800F0C0602B
:10240000491EB0EB416F01D0012000E00020BDE883
:10241000F2837068216920F0FE4040EA016070603C
:102420007047B068F16800F00C000C2870472DE987
:10243000F04704460026002C6CD0DFF86C72386838
:10244000894600F00F00484506D200F0C0F8386811
:1024500000F00F0048455DD12168DFF82C52C80715
:1024600041F2893858D56068DFF840A2032827D1A7
:10247000286882014ED5EA68E868C0F30310401C62
:1024800002F00302032A0CBFDFF82422DFF8002247
:10249000B2FBF0F2E868C0F306204243E868C0F3FC
:1024A0004160401C4000B2FBF0F0504518D3AA68D0
:1024B00012F0F00F0DD0890712D5A06880B908E09E
:1024C0000228286824D1810324D500F086F85045DD
:1024D00006D3A86820F0F00040F08000A8608026B5
:1024E000A9686068890840EA8101A96000F0E8F8FD
:1024F0008246A868616800F00C00B0EB810F0BD039
:1025000000F0DEF8A0EB0A004045F2D303205CE0C7
:102510004105DAD4012058E02068810715D540072D
:1025200003D5A96841F4E061A9602078010705D5C9
:10253000A86820F4605040F4E060A860A968A06832
:1025400021F0F0010143A96005E0802E03D1A868C5
:1025500020F0F000A860386800F00F0081450FD22D
:1025600000F035F800F0ACF80646386800F00F00CF
:10257000484505D000F0A4F8801B4045F5D3C5E7D9
:102580002078410705D5AA68E06822F4E06202439A
:10259000AA602178080706D5A968206921F460514E
:1025A00041EAC001A96000F018F8AA684149C2F3E5
:1025B0000312895C354A01F01F01C8401060BDE874
:1025C000F0473448006800F081B8BDE8F08739680A
:1025D000090949EA0111396070473749086800F074
:1025E0000C00042801D12A487047086800F00C004C
:1025F000082801D12E487047086800F00C000C280C
:1026000018D14A684868C0F30310401C02F0030266
:10261000032A0CBF264A1E4AB2FBF0F24868C0F3F8
:10262000062042434868C0F34160401C4000B2FBB2
:10263000F0F070470020704714481F4A0068136884
:102640001E49C3F3C222895C01F01F01C8407047D4
:1026500010B50F220260184A136803F003034360A9
:10266000146804F0F0048460136803F4E063C3604A
:102670001268D20802F4E06202610B48026802F0BC
:102680000F020A6010BD0000001002401800002078
:102690000024F40010000020901002400070004060
:1026A0000C809F01FFFFEEFE0020024001B4C40435
:1026B00000127A002840000808100240D4400008A8
:1026C00001480068704700BF0C00002078B5044640
:1026D0001C481D4D87B0016841F48021016001A9AB
:1026E000006800F48020009002A8009AFFF7B0FF75
:1026F000FFF7A2FF1549164B2960B0FBF3F0401E0F
:1027000040F2E73268600021EA602961A96028464A
:1027100000F022F8060012D1284600F02AF8060040
:102720000DD11A2000F006FA102C07D20022214603
:102730001A2000F0E1F90748046000E00126304665
:1027400008B070BD60100240081000200048014031
:1027500040420F001000002038B5040001D10120D4
:1027600032BD00F061F818B900F047F900F0A8F99F
:1027700039E090F83D10012901D001207047022175
:1027800080F83D100168CA6842F00102CA60016821
:10279000DFF87C00814218BFB1F1804F0FD0DFF825
:1027A000740081421CBFDFF87020914207D0DFF82F
:1027B0006C0081421CBFDFF8682091420DD18A680D
:1027C000DFF860000240062A18BFB2F5803F08D04B
:1027D000086840F00100086003E00A6842F0010266
:1027E0000A600020704702206870211D206800F0F8
:1027F00008F901202873A870E87028716871A87121
:10280000E87128726872A872E8726870002032BDA0
:10281000002C01400004004000080040003401404A
:10282000004001400700010004F13C056878704752
:1028300010B50446206801698A0715D5C1688A0762
:1028400012D56FF00201016101222277806910F038
:10285000030F204602D000F083F903E000F081F975
:1028600000F0C8F800202077206801694A0715D5D4
:10287000C1684A0712D56FF0040101610222227774
:10288000806910F4407F204602D000F069F903E02F
:1028900000F067F900F0AEF80020207720680169A9
:1028A0000A0715D5C1680A0712D56FF00801016142
:1028B00004222277C06910F0030F204602D000F0F6
:1028C0004FF903E000F04DF900F094F80020207774
:1028D00020680169CA0615D5C168CA0612D56FF00D
:1028E0001001016108222277C06910F4407F204660
:1028F00002D000F035F903E000F033F900F07AF887
:102900000020207720680169CA0708D5C168CA0776
:1029100005D56FF001010161204600F0A2F92068A1
:1029200001690A0608D5C1680A0605D56FF080015D
:102930000161204600F0B4F920680169CA0508D594
:10294000C1680A0605D56FF480710161204600F068
:10295000A8F9206801694A0608D5C1684A0605D564
:102960006FF040010161204600F09CF92068016988
:102970008A0608D5C1688A0605D56FF02001016175
:10298000204600F090F920680169CA0208D5C168A4
:10299000CA0205D56FF480110161204600F084F968
:1029A000206801698A0208D5C1688A0205D56FF4DA
:1029B00000110161204600F078F9206801694A029F
:1029C00008D5C1684A0205D56FF48001016120462F
:1029D00000F06CF9206801690A020AD5C1680A0290
:1029E00007D56FF4000101612046BDE8104000F0FA
:1029F0005EB910BD204600F05BB900212970204669
:102A000070472DE9F041DFF8B070D0F800C0DFF872
:102A10009430DFF89440DFF89450DFF89460DFF8EA
:102A20009CE0DFF89080B84218BFB0F1804F04D02E
:102A300040451CBF7045B0420DD14A68B8422CF0E9
:102A4000700C18BFB0F1804F42EA0C0C0BD040451F
:102A500018BF704507D0B04218BFA84203D0A042AB
:102A600018BF984204D1CA682CF4407C42EA0C0C8E
:102A70004A692CF0800C42EA0C020260B8428A6873
:102A8000C26218BFB0420A68826204D0A8421CBF6A
:102A9000A042984201D10969016301224261BDE867
:102AA000F081000000480140004401400040014026
:102AB0000034014000040040002C014000080040A8
:102AC000704700000901020002D420488154704779
:102AD0001F4B02F00F021A4402F8041C70471D4BF2
:102AE00019684FF6FF020002114000F4E06008434D
:102AF000194908431860704770B5164B1C68C4F339
:102B000002230124C3F10705052D2EBF0F2504FA6A
:102B100005F56D1E1E1D072E34BF0023DB1E294048
:102B2000994004FA03F3BDE870405B1E1A4011435C
:102B3000C8E70000010007D4012200F01F01074B85
:102B40008A40400943F820207047000000E400E07C
:102B500018ED00E00CED00E00000FA0500E100E0F7
:102B60007047704700B585B000F0A4F800F034F865
:102B70003F48016841F004010160026802F004026C
:102B800000920099026842F020020260036803F09C
:102B9000200300930099026842F00102026003687A
:102BA00003F0010300930099026800BF37A142F0CF
:102BB000020202601422006800F0020000900098F7
:102BC0006846FEF749FC0021684600F08EF8294966
:102BD000086000F085F8FEE700B593B038220021C8
:102BE00005A800F0A0F814220021684600F09BF828
:102BF0004FF4007000F0A2F84FF4807208920221A6
:102C0000022205910C920D924021042209910E920C
:102C10004B2102220F9110921192129205A8FFF7F8
:102C200025FA08B172B6FEE70F200321009001914A
:102C3000002202920392049204216846FFF7F7FBF8
:102C400008B172B6FEE713B000BD00002DE91040D8
:102C50000AA4204600F0CAF84FF47A7000F05CF83D
:102C6000F7E700680449884208BF00F0D3B870470E
:102C70004C1002405C1000200048014048656C6C1C
:102C80006F20576F726C64210A000000BC4000087E
:102C90004D2C000800000000000000008000000033
:102CA000704770477047704770477047704770476C
:102CB00070470000032010B5FFF711FF0F20FFF74A
:102CC00005FD0024002814BF012400F0ABF82046C5
:102CD00010BD000001460020842918BFC81C7047A1
:102CE00080B500F079F9002002BD3EB504460D46DE
:102CF000B4F90800FFF7EEFF02A9019100902B46FE
:102D000022692168606892B200F0ACF8012801D015
:102D100000203EBD02983EBD80B500B9012000F004
:102D200040F9002002BD10B5044610460A4601468F
:102D3000204600F0FFFA204610BD000010B53222F8
:102D4000DFF89C30DFF89440DFF88C1048B900F0D1
:102D50001EF820F48070206017D100F01FF80CD40A
:102D600013E0B0F5007F0AD100F011F840F4807054
:102D700020600AD100F012F807D5032010BD0A68C0
:102D800022F4C06242F480620A60002010BD08682C
:102D900000F4C060B0F5806F206870470C6824F4C0
:102DA000C06444F400740C601868DFF838304243A3
:102DB000B2FBF3F0401C00E0401E4A69530501D508
:102DC0000028F9D14869410570470748016841F476
:102DD000804101607047000000700040807000403A
:102DE0001800002040420F00087000400EB4C0B52B
:102DF000024603A800210190009101AB0121044883
:102E000078440C30FDF7E8F906BC5DF810FB00BF14
:102E10007912000002490A68886882180A607047BF
:102E20000C00002080B50E48816841F001018160EE
:102E3000816801F0010100910099026842F080521E
:102E400002600022006800F0805000900F2100987E
:102E50006FF00100FFF750FEBDE80140FFF7B5BF7E
:102E6000581002402DE9F84F804615460F469A4605
:102E7000A80000F069FA5FEA000B21D0542000F0AE
:102E800063FA040019D00BEB8501081F0A9EC4F8F1
:102E900030B0C0084FEAC009390009F0070004F15A
:102EA000340711D000228B5CBB54885C10B1521CDB
:102EB000102AF8D30020F87307E0584600F0D1FA42
:102EC0004FF0FF30BDE8F28F3870062E0B9D88BFA3
:102ED0000626E6623E617861C6F10706201D00F015
:102EE00020FB04F1180000F01CFB2461A661646261
:102EF0000020B861387752464146484600F04EFB04
:102F0000206005B12C6000F0BDFBDFF88053DFF8D6
:102F1000A4A3E86C401CE8641427A86A28BBAC6230
:102F2000E86C012829D1002607FB06F0504400F088
:102F3000EBFA761C062EF7D905F1740000F0E4FADE
:102F400005F18806304600F0DFFA284600F0DCFA8A
:102F500005F1140000F0D8FA05F1380000F0D4FAB9
:102F600005F17400E8622E6307E0A86D28B9E06AF5
:102F7000A96ACA6A904228BFAC62A86E401CA866C3
:102F800000F078F907FB00F2211D0AEB020000F0C7
:102F9000CBFA00F090FBA86D08B100F07CF901209D
:102FA00090E780B588B1DFF8E422116F21B100F01D
:102FB0000FF800F01FF9FEE7116F491C116700219F
:102FC00000F07AF900F038F808B900F00EF901BD08
:102FD000502080F3118870473EB5DFF844430FF26C
:102FE0004C3104F19C0001900025009500238022C3
:102FF0000FF21120FFF736FF502101280ED181F387
:10300000118800F0F7F84FF0FF30E0660121A1656C
:103010002565BDE8374000F0E3BA37BD10F1010F78
:10302000FBD181F3118800F0E5F8FEE7DFF8F0024C
:10303000016F491C0167704770B5DFF85062306F4F
:103040000024002528B9502181F3118800F0D2F81E
:10305000FEE700F017FB306F401E3067306F00282E
:1030600036D1F06CD8B933E0F068C46800F031F8BC
:1030700000F0C5F8E06A716DDFF89C3201228240F1
:103080001143716514225043211D184400F04CFA7D
:10309000E06AB16ACA6A904224BF01213166306891
:1030A0000028E1D10CB100F0D8F8F46D3CB100F08B
:1030B00014F808B101203066641EF8D1F565306E51
:1030C00030B1DFF858124FF08050012500F091F830
:1030D000D7E004F1180000F04DBA2DE9F843DFF80D
:1030E000AC71386F0026002852D13C6D641C3C65E1
:1030F00011D1F86A006828B1502181F3118800F0DD
:1031000079F8FEE7F86A396BF9623863786E401C2B
:10311000786600F0A2F8F86EDFF8FC9184424FF078
:10312000140828D31AE0281D00F024FAA86A18B160
:1031300005F1180000F01EFAE86A796D012282405C
:103140001143796508FB00F0291D484400F0ECF9B3
:10315000E86AB96ACA6A904228BF0126F86A00681C
:1031600030B1F86AC168CD6868688442DBD201E09A
:103170004FF0FF30F866B86AC06A08FB00F059F8F3
:103180000010386E022928BF012620B1012602E076
:10319000F86D401CF8657BE0DFF8F020106F10B18F
:1031A00001211166704710661421506DB0FA80F34A
:1031B000C3F11F034B43DFF86011C85838B95021E1
:1031C00081F31188BFF34F8FBFF36F8FFEE7C818ED
:1031D00000F10803416849684160994204BF4968A9
:1031E00041604068C16891627047DFF830114FF06C
:1031F00080500860BFF34F8FBFF36F8F7047201D63
:1032000000F0B8B970B5DFF8AC40DFF8145111E048
:1032100000F038FA286AC668301D00F0ABF9E86C97
:10322000401EE864686B401E686300F044FA304654
:1032300000F009F8686B0028EAD121680229F9D367
:10324000FFF7D3FFF6E710B50446206B00F009F94D
:103250002046BDE8104000F004B90C49C86A006877
:1032600010B94FF0FF3203E0C86AC268D068426804
:10327000CA6670470122E06A696D82401143696540
:10328000704700F018FA284670BD0000BC0D002001
:103290003046BDE8F283A86AC16AE06A814207D27B
:1032A0001E4A4FF080511160BFF34F8FBFF36F8FF5
:1032B000704700005C0E0020F8B5194D2F6D0C46CC
:1032C000A96A0646081D00F055F930B9A86A696D6B
:1032D000C06A012282409143696516F1010F05D150
:1032E00024B1A86A011D05F138001BE0A86AF6198F
:1032F0004660BE42A86A05D2011D286BBDE8F440B5
:1033000000F01FB9011DE86A00F01BF9E86E864263
:1033100038BFEE66F1BD00005C0E002004ED00E059
:10332000BC0D0020BDE8F44000F0FEB849444C4517
:10333000000000004018491C1CBFB1F1010100F859
:10334000012DF9D1704700002DE9F8430446FFF73D
:103350006DFE6C4FB8684FF00009002508BB07F1FF
:10336000200307F1200113F0070F4FF440600A46D5
:1033700005D0CA1DD208D200C2F5406008188018D6
:103380000838C008C0003A607D60B86045600560DC
:10339000831A5360106050683861F8604FF0004045
:1033A000F8614FF05008F86904424AD1002C48D027
:1033B000083414F0070F1FBF04F1080004F00704DD
:1033C000041B14F0070F02D000F044F8FEE7002CB5
:1033D00037D0F868A04234D33E68394601E0314620
:1033E00006467068A04202D230680028F7D1B8685B
:1033F000864226D00A683068086002F108097268BF
:10340000121B112A0CD3311911F0070002D000F061
:1034100021F8FEE7301D02517460084600F04EF8B6
:103420007168F8683A69401AF860904238BF3861AC
:10343000F86901437160356009F007057869401C3F
:103440007861FFF7F9FD15B100F004F8FEE7484692
:10345000BDE8F28388F31188BFF34F8FBFF36F8FFE
:103460007047002800D1704738B5A0F10805254CF9
:103470006968E2695023114202D100F018F8FEE7B2
:10348000286810B100F013F8FEE791436960FFF778
:10349000CDFDE16868684118E160284600F00EF84B
:1034A000A069401CA061BDE83140FFF7C5BD83F3B2
:1034B0001188BFF34F8FBFF36F8F704730B511493D
:1034C0000A4600E01A4613688342FBD35368D418B7
:1034D000844203D14068C31853601046436814689F
:1034E000C518A54208D189688C4204D06168CB1800
:1034F0004360246800E00C460460824218BF1060FC
:1035000030BD00009C0100204FF0FF3200F10801A7
:1035100082604160C16000F1080202610021016027
:10352000704700210161704710B542684A60936896
:103530008B6094686160916008610168491C01605A
:1035400010BD30B50A6812F1010F08BF036907D03A
:1035500000F1080300E023465C682568AA42FAD21D
:103560005A684A6091608B60596008610168491C23
:10357000016030BD4368016982689A60836842686F
:103580005A604A68824204BF83684B60002202612D
:103590000868401E0860086870470000490810B5B8
:1035A0004900A0F120034FF0807499611A60DC613A
:1035B0006FF002020FF20D01596140F8242D2038FE
:1035C00010BD00004E494A68502012F1010F80F3EF
:1035D0001188BFF34F8FBFF36F8F00D0FEE7FEE778
:1035E0007CB5484A484B10685021984202D100F0FF
:1035F00095F8FEE71068454B984202D100F08EF82E
:10360000FEE7434B1C780194FF251D7007251E78AB
:103610003B4C8DF800609DF80000A56000F0500064
:10362000207006E0401EA0609DF8000040008DF86C
:103630000000A0689DF800502E06F3D4C0F10705E5
:10364000042D02D000F06AF8FEE7000200F4E0600A
:10365000A06001981870116A41F470011162106A3B
:1036600040F07040106200F061F80020606000F0EF
:10367000BBF82848016841F04041016000F0A4F81F
:10368000002076BD502080F31188BFF34F8FBFF329
:103690006F8F1B494A68521C012A4A600AD11E4991
:1036A0000A68130606D080F31188BFF34F8FBFF36B
:1036B0006F8FFEE770471249486838B9502080F391
:1036C0001188BFF34F8FBFF36F8FFEE7401E486036
:1036D00008BF80F31188704780B5502080F31188AF
:1036E000BFF34F8FBFF36F8FFFF7F7FC18B10A4995
:1036F0004FF080500860002282F3118801BD000065
:103700000000002000ED00E071C20F4170C20F41C7
:1037100000E400E034EF00E004ED00E081F3118804
:10372000BFF34F8FBFF36F8F704700000748084B00
:103730000021016081604FF47A721968B1FBF2F2E6
:10374000521E426007210160704700BF10E000E098
:1037500018000020EFF30980BFF36F8F264B1A6823
:103760001EF0100F08BF20ED108A20E9F04F106006
:1037700009B44FF0500080F31188BFF34F8FBFF3AF
:103780006F8FFFF709FD4FF0000080F3118809BC2F
:1037900019680868B0E8F04F1EF0100F08BFB0ECD1
:1037A000108A80F30988BFF36F8F7047124B196836
:1037B0000868B0E8F04F80F30988BFF36F8F4FF0CF
:1037C000000080F3118870470C480068006880F39F
:1037D00008884FF0000080F3148862B661B6BFF32A
:1037E0004F8FBFF36F8F00DFDFF81400016841F4E3
:1037F0007001016070470000E40D002008ED00E05A
:1038000088ED00E010B50446AFF30080204600F0DC
:1038100005F80446AFF30080204610BD70B500F1F6
:103820000F04E408E400A0422CD2082C04D208249F
:1038300002E0083000F046F8DFF8FC2013681900B9
:1038400005D1002007E00568A5420DD2011D0868DA
:103850000028F8D11868111D00E0191D0B6883427B
:103860000CD01D68A542F8D361B10B681868A0F1AF
:103870000805A54208D2586808600DE000F05EF81F
:103880000028D6D1002070BD1D190D60001B5E6898
:103890006E600D6828601C60096800291DBF4868BB
:1038A0000028081D0020106003F1080070BD10B54D
:1038B000040006D0AFF30080204600F003F8AFF319
:1038C000008010BD002800D1704770B4A0F108023C
:1038D0001368072B2ED913F0070F2BD1DFF85840B0
:1038E000616809B18A4203D25160626015E0014605
:1038F000486808B19042FAD308680E18B24219D34A
:10390000964203D11B180B600A4606E0486810B1C6
:10391000134498420ED350604A60506850B1136807
:10392000D518854206D1002626600168CB181360A1
:103930004068506070BC7047541000200749086808
:1039400008B1002070470648C008C000086005495B
:10395000C908C900091A0160704700BF641000203F
:1039600077140020701600202DE9F04107468846A4
:10397000387810F0030F16461D4633D0384600F055
:1039800099F878BBB8F1000F1CBFD8E9000186197F
:10399000012D2ED13888C10415D5396A07F14402AA
:1039A000384600F0A3F83A6B044602B93A69F96860
:1039B000384600F09BF8361B341A7A69F9683846A5
:1039C00000F094F8261A1EB94DB916F1010F09D06E
:1039D00097F903002A46314600F08EF8064616F1A4
:1039E000010F09D12320AFF300804FF0FF30BDE875
:1039F000F081022DE8D1EBE7388810F4405F0ED05B
:103A00007868F86038617861B86107F144017868D6
:103A1000F861396207F13000002178623963B8F14A
:103A2000000F05D0D8E9020107F13402C2E9000114
:103A30003B884CF6FF6003403B800020BDE8F081EE
:103A400070B50546AFF30080288881042DD56E68D7
:103A5000002400E00644EA6895F9030031469142EB
:103A600008D2521A00F06DF810F1010F09D00028A9
:103A7000F0D106E00022002100F063F810F1010F00
:103A800000D101246868E860A861E861298844B130
:103A900041F4007129802846AFF300804FF0FF30D9
:103AA00070BD4DF6FF70014029802846AFF30080BD
:103AB000002070BDF8B5A0B9AFF3008000250A4E14
:103AC00008244FF0FF37306820B1FFF7B9FF002816
:103AD00048BF3D46361D641EF5D1AFF30080284631
:103AE000F2BDBDE8F240ABE774010020914234BF63
:103AF000511A0021084670473EB504000D00012A06
:103B000002D100F06BF807E0022A07D100940020F0
:103B1000019069460C20ABBE2D1801E0002A0CD1A3
:103B20000094019569460A20ABBE002805D1002209
:103B30002100280000F02FF801E00020C04303B06E
:103B400030BD80B5002802D400F06AF802BD002024
:103B500002BD000010B4314A002113461C688442A3
:103B60001EBF491C9C6884421EBF491C1C698442BC
:103B700009D09C69491C844205D0491C2033102976
:103B8000ECD310BC7047002342F8313002EBC10186
:103B90004B6010BC704770B4204C002325462E6843
:103BA0008E421EBF5B1CAE688E421EBF5B1C2E6920
:103BB0008E4209D0AE695B1C8E4205D05B1C20355D
:103BC000102BECD370BC7047054604EBC303012AED
:103BD00004BF59684D195D6070BC704710B40F4A3E
:103BE000002113461C6884421EBF491C9C68844205
:103BF0001EBF491C1C6984420AD09C69491C84422E
:103C000006D0491C20331029ECD310BC002070478B
:103C100002EBC100406810BC70470000E80E0020B5
:103C200080B5002901D1002002BD012801D0022861
:103C300002D100F004F802BD00F011F802BD30B569
:103C400083B00C0015000120FEF7CAF90090019422
:103C5000029569460520ABBE281A03B030BD18B5E1
:103C600083B003001400009301910294694605207B
:103C7000ABBE01221900201AFFF78DFF04B010BD62
:103C800010B50446E068A169884251D3218849F201
:103C900002030B40022B08D008044CBF4FF4007005
:103CA0004FF48440014321803BE001F4C042B2F56F
:103CB000C04F06D1A168884203D32046FFF7FAFE21
:103CC00078BB208810F4406F02BF606804F14401A3
:103CD000884217D14FF40070FFF794FD606030B94F
:103CE00004F144006060E060401CA0600AE02188AC
:103CF00041F040012180E060606100F50072606881
:103D0000A260E0616068A1682061A161207841073C
:103D10000AD502220021204600F00CF810F1010F14
:103D200002D14FF0FF3010BD208840F4C040208009
:103D3000002010BD70B504460D461646AFF3008056
:103D400033462A4600212046FFF70EFE0546204650
:103D5000AFF30080284670BD82B001780A062FD5E7
:103D600023490B6800930022834203D1002341F8CA
:103D7000223022E04B680093012283421FBF0222BF
:103D80008B6800938342F1D0CB6800930322834277
:103D90001FBF04220B6900938342E7D04B69009355
:103DA000052283421FBF06228B6900938342DDD028
:103DB0000722CB6900938342D8D002B000F01AB832
:103DC000002101804FF0FF3200F14401C270C16058
:103DD0004161C16100F1440300F1440200F130018E
:103DE0004360026182610262416202B0704700007A
:103DF00074010020FFF75BBD38B504000ED02078B9
:103E000010F0030F03D094F90300002809D5AFF395
:103E100000802046FFF7A0FFAFF300804FF0FF3097
:103E200032BD2046FFF746FE0546AFF300802078FE
:103E3000410644BF6068FFF7DDFF0020606094F931
:103E40000300022804D900F016F808B14FF0FF353E
:103E5000E06B48B100F01BF808B14FF0FF35E06BA4
:103E6000FFF7C8FF0020E0632046FFF775FFAFF3C0
:103E70000080284632BD1CB502000092694602202F
:103E8000ABBE04001000FFF765FE200016BDE0B5D4
:103E90000090FDF799FA019069460E20ABBE03B081
:103EA00000BDF0B40246106895681318506803EB23
:103EB0005004C0071CD54D441AE013F8017B05F8E7
:103EC000017B491EF9D198B113F8011BC6F3810695
:103ED000032E08BF13F8016B01EB06214942801C39
:103EE000294405D011F8016B05F8016B401EF9D18A
:103EF000A3420ED013F8016B16F0030104BF13F8B0
:103F0000011BC91C30090F28DBD113F8010B0F303E
:103F1000D7E7F0BC02F10C00704738B50C46C5B2CB
:103F20002046AFF30080E068A169884204D32046B0
:103F3000FFF7A6FE00280FD4E068401CE06000F800
:103F4000015D2088010503D440050BD50A2D09D158
:103F50002046FFF7AFFD28B12046AFF300804FF0B9
:103F6000FF3032BD2046AFF30080284632BD00004E
:103F700038B50D4D0824286800281CBF017811F0C1
:103F8000030F05D090F90310002958BFFFF734FF45
:103F90002D1D641EEFD1BDE83840002200214FF0F6
:103FA000FF30FFF7CEBD00BF7401002010B50749F8
:103FB00079441831064C7C44163404E00A68081D24
:103FC000114488470146A142F8D110BD2C000000E1
:103FD000480000004EF68851CEF20001086840F417
:103FE00070000860BFF34F8FBFF36F8F4FF000700A
:103FF000E1EE100A70470000A7D2FFFFD00E0000CC
:104000009C010020000000009BFEFFFFE401000077
:1040100026010000000000200248016841F4700100
:104020000160704788ED00E0000000000000000023
:10403000010203040607080900F00DF8002801D06A
:10404000FFF7B4FFAFF300800020AFF30080FEF76E
:1040500089FD00F002F80120704700F001B800006F
:104060000746FFF785FF3846FDF79AFFFBE700009C
:10407000FEE7FEE7FEE7FEE7FEE770470148FEF7D2
:10408000D7BB00000810002038B504460D4628466E
:1040900000F006F8A84218BF0024204632BD0000F8
:1040A0000149FFF73ABF00BFE40000200148804704
:1040B0000148004719400008C9400008646566616E
:1040C000756C745461736B00AFF30080FFF782FF6F
:1040D000FFF7B2FF0000000001020304FFF7FEBF7C
:1040E000FFF7FEBFFFF7FEBFFFF7FEBFFFF7FEBF04
:1040F000FFF7FEBFFFF7FEBFFFF7FEBFFFF7FEBFF4
:10410000FFF7FEBFFFF7FEBFFFF7FEBFFFF7FEBFE3
:10411000FFF7FEBFFFF7FEBFFFF7FEBFFFF7FEBFD3
:10412000FFF7FEBFFFF7FEBFFFF7FEBFFFF7FEBFC3
:10413000FFF7FEBFFFF7FEBFFFF7FEBFFFF7FEBFB3
:10414000FFF7FEBFFFF7FEBFFFF7FEBFFFF7FEBFA3
:10415000FFF7FEBFFFF7FEBFFFF7FEBFFFF7FEBF93
:10416000FFF7FEBFFFF7FEBFFFF7FEBFFFF7FEBF83
:10417000FFF7FEBFFFF7FEBFFFF7FEBFFFF7FEBF73
:10418000FFF7FEBFFFF7FEBFFFF7FEBFFFF7FEBF63
:10419000FFF7FEBFFFF7FEBFFFF7FEBFFFF7FEBF53
:1041A000FFF7FEBFFFF7FEBFFFF7FEBFFFF7FEBF43
:1041B000FFF7FEBFFFF7FEBFFFF7FEBFFFF7FEBF33
:1041C000FFF7FEBFFFF7FEBFFFF7FEBFFFF7FEBF23
:1041D000FFF7FEBFFFF7FEBFFFF7FEBFFFF7FEBF13
:1041E000FFF7FEBFFFF7FEBFFFF7FEBFFFF7FEBF03
:1041F00012000112AA0152000112100922010DF051
:10420000050724F4003E1500080452FF01E3FE13E5
:1042100014100100000E0C2144F003161C000020B5
:104220000001127D48212C436B133C210110030136
:10423000040000E04412E10452E004211BA108F252
:1042400012CC64200A02040101B80F0020081000FB
:104250002008210421346108F004122801002014F0
:104260000148500208020268405268042134610883
:10427000127044F2125C48129CB412E404F2062C50
:034280002C655C4E
:04000005080040C9E6
:00000001FF
